{
  "contractName": "Hacker",
  "abi": [
    {
      "constant": true,
      "inputs": [],
      "name": "getValue",
      "outputs": [
        {
          "internalType": "uint256",
          "name": "",
          "type": "uint256"
        }
      ],
      "payable": false,
      "stateMutability": "view",
      "type": "function"
    }
  ],
  "bytecode": "0x6080604052739a6120275387dc5aa5dab0d87aeeee5894a3411b6000806101000a81548173ffffffffffffffffffffffffffffffffffffffff021916908373ffffffffffffffffffffffffffffffffffffffff16021790555034801561006457600080fd5b50610129806100746000396000f3fe6080604052348015600f57600080fd5b506004361060285760003560e01c80632096525514602d575b600080fd5b60336049565b6040518082815260200191505060405180910390f35b6000806000809054906101000a900473ffffffffffffffffffffffffffffffffffffffff1673ffffffffffffffffffffffffffffffffffffffff16632e64cec16040518163ffffffff1660e01b815260040160206040518083038186803b15801560b257600080fd5b505afa15801560c5573d6000803e3d6000fd5b505050506040513d602081101560da57600080fd5b81019080805190602001909291905050509050809150509056fea265627a7a72315820378b1125fbf33d14af004a70af3f00605f7a12966d86a251a2056e03cae7d6de64736f6c63430005100032",
  "source": "// SPDX-License-Identifier: GPL-3.0\r\npragma solidity >=0.4.25 <0.7.0;\r\n\r\ninterface Objetivo {\r\n    function retrieve() external view returns (uint256);\r\n}\r\n\r\ncontract Hacker {\r\n    Objetivo direccion = Objetivo(0x9a6120275387Dc5Aa5dab0D87aeeee5894A3411B);\r\n\r\n    function getValue() public view returns (uint256) {\r\n        uint256 number = direccion.retrieve();\r\n        return number;\r\n    }\r\n}\r\n",
  "sourcePath": "C:/Users/cesar/Workspace/Ethereum/Hacker/contracts/Hacker.sol",
  "compiler": {
    "name": "solc",
    "version": "0.5.16+commit.9c3226ce.Emscripten.clang"
  },
  "schemaVersion": "3.4.1",
  "updatedAt": "2021-06-17T11:04:42.851Z",
  "networkType": "ethereum",
  "devdoc": {
    "methods": {}
  },
  "userdoc": {
    "methods": {}
  }
}