{
  "contractName": "Vulnerable",
  "abi": [
    {
      "constant": true,
      "inputs": [],
      "name": "retrieve",
      "outputs": [
        {
          "internalType": "uint256",
          "name": "",
          "type": "uint256"
        }
      ],
      "payable": false,
      "stateMutability": "view",
      "type": "function"
    }
  ],
  "bytecode": "0x6080604052600a600055348015601457600080fd5b506087806100236000396000f3fe6080604052348015600f57600080fd5b506004361060285760003560e01c80632e64cec114602d575b600080fd5b60336049565b6040518082815260200191505060405180910390f35b6000805490509056fea265627a7a72315820df6964eb041c26cf1ff6bbbc594b582f69721e3095d6a6c1d2e032d16e9a0eac64736f6c63430005100032",
  "source": "// SPDX-License-Identifier: GPL-3.0\r\n\r\npragma solidity >=0.4.25 <0.7.0;\r\n\r\ncontract Vulnerable {\r\n    uint256 number = 10;\r\n\r\n    function retrieve() public view returns (uint256) {\r\n        return number;\r\n    }\r\n}\r\n",
  "sourcePath": "C:/Users/cesar/Workspace/Ethereum/Vulnerable/contracts/Vulnerable.sol",
  "compiler": {
    "name": "solc",
    "version": "0.5.16+commit.9c3226ce.Emscripten.clang"
  },
  "schemaVersion": "3.4.1",
  "updatedAt": "2021-06-17T10:58:36.413Z",
  "networkType": "ethereum",
  "devdoc": {
    "methods": {}
  },
  "userdoc": {
    "methods": {}
  }
}